:080000000C943E000C9400007A
:100008000C9400000C9400000C9400000C94000068
:100018000C9400000C9400000C9400000C94000058
:100028000C9400000C9400000C9400000C94000048
:100038000C9400000C9400000C9400000C94000038
:100048000C9400000C9400000C9400000C94000028
:100058000C9400000C9400000C9400000C94000018
:100068000000000000000000000000000C00030079
:1000780068000000F894EE27EFBBF1E0F5BFE5BF9C
:100088008DE0A2E0BB27ED938A95E9F780E098E040
:10009800A0E0B1E0ED930197E9F7E4E7F0E085919E
:1000A8009591009761F0A591B59105901590BF01C4
:1000B800F00105900D920197E1F7FB01F0CFE0E028
:1000C800EEBBEFEFEDBFE8E0EEBFC0E0D3E00C948D
:1000D8009D00BA93AA93E881F981309729F1E1301C
:1000E800A0E0FA0721F45B984198409A20C0E230DA
:1000F800A0E0FA0719F45B98419A18C0E330A0E031
:10010800FA0721F45B98419A409A11C0E430A0E0C4
:10011800FA0711F45B9A09C0E530A0E0FA0721F468
:100128005B9A4198409A03C05B9841984098229600
:100138000895E8E0EAB9E4EFEBB9E3E2E7B9ECE106
:10014800E8B974D14C99BBC0329B08C04E9902C023
:1001580074D104C0339902C070D1FCCF4D9B02C04A
:100168004C9B01C08DC0329B08C04E9902C065D11E
:1001780004C0339902C061D1FCCF4F9957C04A9946
:1001880062D14A9902C064D109F04FC066D1E5E056
:10019800E0938100B09914C069D191F0329B02C0FC
:1001A800339B01C002C067D10BC04A994CD14A9910
:1001B80002C04ED109F003C050D1B09A37D1EACF6E
:1001C8005FD1B314C40478F565D1B09927C0329BC8
:1001D80006C0349904C000240514060409F004C0BC
:1001E800349902C02AD1FCCF339B45D1349B5CD1D2
:1001F80060D121F463D111F4329B01C00EC063D1E8
:10020800A0E0B3E0ED91FD913197FE93EE93A091BC
:100218000003B09101035DDF01C0D7CF092C0A2884
:1002280011F05AD1CECF5DD162D129C04A990BD1F4
:100238004A9902C00DD109F022C061D1B0991BC002
:10024800329B06C0349904C000240514060409F042
:1002580004C0349902C0F1D0FCCF339B0CD1349B3D
:1002680023D127D121F42AD111F4329B01C002C035
:100278002AD101C0E3CF35D1A32DB42D2ADF6ECF0B
:100288004A991CC0329B08C0349906C00024051442
:10029800060411F44E9B01C004C0349902C0CDD0AD
:1002A800FCCF339BE8D0349BFFD003D121F406D197
:1002B80011F4329B01C001C02CD1E2CF43CF4C9B3B
:1002C800B3C0329B08C04E9902C0B7D004C034995D
:1002D80002C0B3D0FCCF4D9B02C04C9901C085C071
:1002E800329B08C04E9902C0A8D004C0349902C0FD
:1002F800A4D0FCCF4F994FC04A99A5D04A9902C0C3
:10030800A7D009F047C0A9D0E5E0E0938100B099F3
:1003180014C04A9998D0AAD081F0329B02C0349B6D
:1003280001C002C0A8D009C04A9902C091D009F002
:1003380003C093D0B09A7AD0EACFA2D0B314C40441
:1003480038F5A8D0B0991FC0329B06C0339904C0B5
:1003580000240514060409F004C0339902C06DD0C6
:10036800FCCF349B88D0339B9FD0A3D021F4A6D058
:1003780011F4329B01C006C0A6D03092000340920F
:10038800010301C0DFCF092C0A2811F0A5D0D6CF70
:10039800A8D0ADD029C04A9956D04A9902C058D0A1
:1003A80009F022C0ACD0B0991BC0329B06C033996B
:1003B80004C000240514060409F004C0339902C0DF
:1003C8003CD0FCCF349B57D0339B6ED072D021F4F5
:1003D80075D011F4329B01C002C075D001C0E3CFC3
:1003E80080D0A32DB42D75DE76CF4A991CC0329BE0
:1003F80008C0339906C000240514060411F44E9B66
:1004080001C004C0339902C018D0FCCF349B33D04C
:10041800339B4AD04ED021F451D011F4329B01C005
:1004280001C077D0E2CF4BCF8DCEFFCFECEEE0937B
:100438008500EDEEE09384000895459AA8ECB0E0BD
:100448006DD045980895E1E0F0E0DE2EEF2E089596
:10045800E1E0F0E0ED15FE050895DD24EE24E1E08D
:10046800F0E03E0E4F1EA32DB42D33CEE5E0F0E0B4
:10047800E315F4050895E1E0F0E05E2E6F2E08958F
:10048800E0E0E09381003092000340920103BB2436
:10049800CC240895B09AE5E0E0938100E9EDE0937B
:1004A8008500E09384000895E1E0F0E07E2E8F2E31
:1004B8000895E1E0F0E0E515F6050895E1E0F0E0E3
:1004C800E715F8050895E1E0F0E09E2EAF2E5524DB
:1004D8006624772488240895E1E0F0E0BE0ECF1E5C
:1004E8000895E0E0E0938100332444240895E0E097
:1004F800E0930003E0930103A32DB42DEACDDD249E
:10050800EE24E1E0F0E03E2E4F2EA32DB42DE1DDE8
:10051800C1CF55246624772488240895109639F08D
:10052800A89580ED97E00197F1F71197C9F708951D
:00000001FF
