:020000000C945E
:100002003D000C9400000C9400000C9400000C9431
:1000120000000C9400000C9400000C9400000C945E
:1000220000000C9400000C9400000C9400000C944E
:1000320000000C9400000C9400000C9400000C943E
:1000420000000C9400000C9400000C9400000C942E
:1000520000000C9400000C9400000C9400000C941E
:1000620000000C94000000000000000000000000EE
:100072000A00030068000000F894EE27EFBBF1E0ED
:10008200F5BFE5BF8DE0A2E0BB27ED938A95E9F7C6
:1000920080E098E0A0E0B1E0ED930197E9F7E2E7B4
:1000A200F0E085919591009761F0A591B591059049
:1000B2001590BF01F00105900D920197E1F7FB0148
:1000C200F0CFE0E0EEBBEFEFEDBFE8E0EEBFC0E067
:1000D200D3E00C946C00EBE0EAB9E4EFEBB9E0E2B8
:1000E200E7B9ECE1E8B94C9971C0329B08C04E996E
:1000F20002C0DFD004C0339902C0DBD0FCCF4D9BDD
:1001020060C0329B08C04E9902C0D3D004C033995C
:1001120002C0CFD0FCCF4F9933C04A9930C0CFD064
:10012200D3D04A9904C0DAD020F0C9D0DCD0A89B41
:10013200F8CFDED0B314C40408F5D5D0DFD0A89927
:1001420018C0329B02C0349B01C004C0349902C063
:10015200B0D0FCCF339903C0D7D0349BDAD0DED0F5
:1001620021F4E1D011F4329B01C002C0E1D001C000
:10017200E6CF092C0A2811F0E0D0DCCFE3D020C072
:100182004A991EC0B0D0BAD0A89917C0329B02C0FB
:10019200349B01C004C0349902C08BD0FCCF339988
:1001A20003C0B2D0349BB5D0B9D021F4BCD011F485
:1001B200329B01C001C001C0E7CFE0E0E0938100C3
:1001C2009ECF4A9902C04598FCCF8DCF4C9B6FC001
:1001D200329B08C04E9902C06CD004C0349902C050
:1001E20068D0FCCF4D9B5EC0329B08C04E9902C0C6
:1001F20060D004C0349902C05CD0FCCF4F9933C0A8
:100202004A9930C05CD060D04A9904C067D020F0CF
:1002120056D069D0A89BF8CF6BD0B314C40408F5AC
:1002220062D06CD0A89918C0329B02C0339B01C027
:1002320004C0339902C08CD0FCCF349903C064D07F
:10024200339B67D06BD021F46ED011F4329B01C086
:1002520002C06ED001C0E6CF092C0A2811F06DD081
:10026200DCCF70D01EC04A9B1BC03DD047D0A8999E
:1002720017C0329B02C0339B01C004C0339902C035
:1002820067D0FCCF349903C03FD0339B42D046D0D5
:1002920021F449D011F4329B01C001C001C0E7CF63
:1002A20051D0A0CF4A9902C04598FCCF8FCF1BCF27
:1002B200FFCF459AA8ECB0E051D045980895E1E00F
:1002C200F0E03E0E4F1E0895E5E0E0938100ECEE73
:1002D200E0938500EDEEE09384000895E5E0F0E020
:1002E200E315F4050895B09AE5E0E09381000895DE
:1002F200E0E0E0938100BB24CC240895E9EDE09393
:100302008500E09384000895E1E0F0E05E2E6F2E18
:100312000895E1E0F0E07E2E8F2E0895E1E0F0E016
:10032200E515F6050895E1E0F0E0E715F805089512
:10033200E1E0F0E09E2EAF2E0895E1E0F0E0BE0E87
:10034200CF1E0895E0E0E093810033244424089511
:10035200459AA8E8B3E102D045980895109639F07D
:10036200A89580ED97E00197F1F71197C9F70895E5
:00000001FF
