:080000000C943E000C9400007A
:100008000C9400000C9400000C9400000C94000068
:100018000C9400000C9400000C9400000C94000058
:100028000C9400000C9400000C9400000C94000048
:100038000C9400000C9400000C9400000C94000038
:100048000C9400000C9400000C9400000C94000028
:100058000C9400000C9400000C9400000C94000018
:100068000000000000000000000000000C00030079
:1000780068000000F894EE27EFBBF1E0F5BFE5BF9C
:100088008DE0A2E0BB27ED938A95E9F780E098E040
:10009800A0E0B1E0ED930197E9F7E4E7F0E085919E
:1000A8009591009761F0A591B59105901590BF01C4
:1000B800F00105900D920197E1F7FB01F0CFE0E028
:1000C800EEBBEFEFEDBFE8E0EEBFC0E0D3E00C948D
:1000D8006D00E0E0EAB9E4EFEBB9E0E2E7B9ECE1A2
:1000E800E8B91AD14C998AC0329B08C04E9902C00F
:1000F8001AD104C0339902C016D1FCCF4D9B02C05F
:100108004C9B01C076C0329B08C04E9902C00BD1EF
:1001180004C0339902C007D1FCCF4F9943C04A9914
:1001280008D14A9902C00AD109F03BC00CD1E5E0D8
:10013800E0938100B0990DC00DD159F04A99F9D0DA
:100148004A9902C0FBD009F003C0FDD0B09AE4D0B0
:10015800F1CF05D1B314C40418F507D1B0991BC069
:10016800329B06C0349904C000240514060409F023
:1001780004C0349902C0D7D0FCCF339B00D1349B44
:1001880003D107D121F40AD111F4329B01C002C076
:100198000AD101C0E3CF092C0A2811F00DD1DACF1A
:1001A80010D126C04A99C5D04A9902C0C7D009F0D3
:1001B8001FC00DD1B0991BC0329B06C0349904C032
:1001C80000240514060409F004C0349902C0ABD019
:1001D800FCCF339BD4D0349BD7D0DBD021F4DED0F6
:1001E80011F4329B01C002C0DED001C0E3CFE9D0D8
:1001F80085CF4A9902C04598FCCF74CF4C9B8AC0E2
:10020800329B08C04E9902C08ED004C0349902C0F7
:100218008AD0FCCF4D9B02C04C9901C076C0329B5E
:1002280008C04E9902C07FD004C0349902C07BD068
:10023800FCCF4F9943C04A997CD04A9902C07ED0DE
:1002480009F03BC080D0E5E0E0938100B0990DC093
:100258004A996FD07FD049F04A9902C06FD009F00F
:1002680003C071D0B09A58D0F1CF79D0B314C40478
:1002780018F57BD0B0991BC0329B06C0339904C0D7
:1002880000240514060409F004C0339902C04BD0B9
:10029800FCCF349B74D0339B77D07BD021F47ED0B5
:1002A80011F4329B01C002C07ED001C0E3CF092CFB
:1002B8000A2811F081D0DACF84D026C04A9939D0E3
:1002C8004A9902C03BD009F01FC081D0B0991BC029
:1002D800329B06C0339904C000240514060409F0B3
:1002E80004C0339902C01FD0FCCF349B48D0339B45
:1002F8004BD04FD021F452D011F4329B01C002C030
:1003080052D001C0E3CF5DD085CF4A9902C045984D
:10031800FCCF74CFE7CEFFCFECEEE0938500EDEE97
:10032800E09384000895459AA8ECB0E057D045982A
:100338000895E1E0F0E0DE2EEF2E0895E1E0F0E030
:10034800ED15FE050895DD24EE24E1E0F0E03E0E13
:100358004F1E0895E5E0F0E0E315F4050895E0E0A8
:10036800E0938100BB24CC240895B09AE5E0E093A3
:100378008100E9EDE0938500E09384000895E1E0D1
:10038800F0E05E2E6F2E0895E1E0F0E07E2E8F2ED5
:100398000895E1E0F0E0E515F6050895E1E0F0E004
:1003A800E715F8050895E1E0F0E09E2EAF2E5524FC
:1003B8006624772488240895E1E0F0E0BE0ECF1E7D
:1003C8000895E0E0E0938100332444240895DD2477
:1003D800EE24E1E0F0E03E2E4F2EC7CF109639F024
:1003E800A89580ED97E00197F1F71197C9F708955F
:00000001FF
