:0C0000000C943E000C9400000C940000D6
:10000C000C9400000C9400000C9400000C94000064
:10001C000C9400000C9400000C9400000C94000054
:10002C000C9400000C9400000C9400000C94000044
:10003C000C9400000C9400000C9400000C94000034
:10004C000C9400000C9400000C9400000C94000024
:10005C000C9400000C9400000C94000000000000B4
:10006C0000000000000000000C000300680000000D
:10007C00F894EE27EFBBF1E0F5BFE5BF8DE0A2E011
:10008C00BB27ED938A95E9F780E098E0A0E0B1E01A
:10009C00ED930197E9F7E4E7F0E0859195910097EE
:1000AC0061F0A591B59105901590BF01F0010590F7
:1000BC000D920197E1F7FB01F0CFE0E0EEBBEFEF23
:1000CC00EDBFE8E0EEBFC0E0D3E00C946D00E0E0E3
:1000DC00EAB9E4EFEBB9E0E2E7B9ECE1E8B914D145
:1000EC004C9987C0329B08C04E9902C014D104C0F1
:1000FC00339902C010D1FCCF4D9B76C0329B08C007
:10010C004E9902C008D104C0339902C004D1FCCF6F
:10011C004F9943C04A9905D14A9902C007D109F0B9
:10012C003BC009D1E5E0E0938100B0990DC00AD144
:10013C0059F04A99F6D04A9902C0F8D009F003C098
:10014C00FAD0B09AE1D0F1CF02D1B314C40418F5AF
:10015C0004D1B0991BC0329B06C0349904C0002452
:10016C000514060409F004C0349902C0D4D0FCCFA5
:10017C00339BFDD0349B00D104D121F407D111F471
:10018C00329B01C002C007D101C0E3CF092C0A2861
:10019C0011F00AD1DACF0DD126C04A99C2D04A99B2
:1001AC0002C0C4D009F01FC00AD1B0991BC0329B49
:1001BC0006C0349904C000240514060409F004C0D8
:1001CC00349902C0A8D0FCCF339BD1D0349BD4D06F
:1001DC00D8D021F4DBD011F4329B01C002C0DBD0AB
:1001EC0001C0E3CFE6D088CF4A9902C04598FCCF36
:1001FC0077CF4C9B87C0329B08C04E9902C08BD0E6
:10020C0004C0349902C087D0FCCF4D9B76C0329B82
:10021C0008C04E9902C07FD004C0349902C07BD074
:10022C00FCCF4F9943C04A997CD04A9902C07ED0EA
:10023C0009F03BC080D0E5E0E0938100B0990DC09F
:10024C004A996FD07FD049F04A9902C06FD009F01B
:10025C0003C071D0B09A58D0F1CF79D0B314C40484
:10026C0018F57BD0B0991BC0329B06C0339904C0E3
:10027C0000240514060409F004C0339902C04BD0C5
:10028C00FCCF349B74D0339B77D07BD021F47ED0C1
:10029C0011F4329B01C002C07ED001C0E3CF092C07
:1002AC000A2811F081D0DACF84D026C04A9939D0EF
:1002BC004A9902C03BD009F01FC081D0B0991BC035
:1002CC00329B06C0339904C000240514060409F0BF
:1002DC0004C0339902C01FD0FCCF349B48D0339B51
:1002EC004BD04FD021F452D011F4329B01C002C03C
:1002FC0052D001C0E3CF5DD088CF4A9902C0459857
:10030C00FCCF77CFEDCEFFCFECEEE0938500EDEE9A
:10031C00E09384000895459AA8ECB0E057D0459836
:10032C000895E1E0F0E0DE2EEF2E0895E1E0F0E03C
:10033C00ED15FE050895DD24EE24E1E0F0E03E0E1F
:10034C004F1E0895E5E0F0E0E315F4050895E0E0B4
:10035C00E0938100BB24CC240895B09AE5E0E093AF
:10036C008100E9EDE0938500E09384000895E1E0DD
:10037C00F0E05E2E6F2E0895E1E0F0E07E2E8F2EE1
:10038C000895E1E0F0E0E515F6050895E1E0F0E010
:10039C00E715F8050895E1E0F0E09E2EAF2E552408
:1003AC006624772488240895E1E0F0E0BE0ECF1E89
:1003BC000895E0E0E0938100332444240895DD2483
:1003CC00EE24E1E0F0E03E2E4F2EC7CF109639F030
:1003DC00A89580ED97E00197F1F71197C9F708956B
:00000001FF
