:080000000C943E000C9400007A
:100008000C9400000C9400000C9400000C94000068
:100018000C9400000C9400000C9400000C94000058
:100028000C9400000C9400000C9400000C94000048
:100038000C9400000C9400000C9400000C94000038
:100048000C9400000C9400000C9400000C94000028
:100058000C9400000C9400000C9400000C94000018
:100068000000000000000000000000000C00030079
:1000780068000000F894EE27EFBBF1E0F5BFE5BF9C
:100088008DE0A2E0BB27ED938A95E9F780E098E040
:10009800A0E0B1E0ED930197E9F7E4E7F0E085919E
:1000A8009591009761F0A591B59105901590BF01C4
:1000B800F00105900D920197E1F7FB01F0CFE0E028
:1000C800EEBBEFEFEDBFE8E0EEBFC0E0D3E00C948D
:1000D8006D00EBE0EAB9E4EFEBB9E2E0E7B9ECE197
:1000E800E8B94C9B70C04D9969C0329966C04E9B67
:1000F80002C0D9D00CC0339B08C0052C062829F4AF
:10010800339B03C0D0D04198FBCF3499D0D04198CD
:100118004F9B31C04A9B2EC0CFD04A9B03C0DCD036
:1001280018F0DFD0A89BF9CFE5D0D314E40408F584
:10013800E7D0A89919C0329902C0349901C005C006
:10014800349B03C0B0D04198FBCF339B03C0E2D0AF
:100158003499E5D0E9D021F4ECD011F4329901C0FA
:1001680002C0ECD001C0E5CF0B2C0C2811F0EBD06D
:10017800DCCFEED022C04A9B1EC0C2D0A89918C0BE
:10018800329902C0349901C005C0349B03C08BD09A
:100198004198FBCF339B03C0BDD03499C0D0C4D0A5
:1001A80021F4C7D011F4329901C001C001C0E6CFD3
:1001B800E0E0E09381003324442495CF4A9B02C0B9
:1001C8004198FCCF8ECF4C996CC04D9965C032993F
:1001D80062C04E9B02C067D00CC0349B08C0052C7F
:1001E800062829F4349B03C05ED04198FBCF33998D
:1001F8005ED041984F9B31C04A9B2EC05DD04A9B30
:1002080003C06AD018F06DD0A89BF9CF73D0D3146F
:10021800E40408F575D0A89919C0329902C0339939
:1002280001C005C0339B03C03ED04198FBCF349B2F
:1002380003C070D0339973D077D021F47AD011F4F9
:10024800329901C002C07AD001C0E5CF0B2C0C282E
:1002580011F079D0DCCF7CD01EC04A991BC050D099
:10026800A89918C0329902C0339901C005C0339BC0
:1002780003C019D04198FBCF349B03C04BD03399AE
:100288004ED052D021F455D011F4329901C001C09A
:1002980001C0E6CF5DD099CF4A9B02C04198FCCF00
:1002A80092CF1FCFFFCF419AA8E8B3E157C0E1E052
:1002B800F0E05E2E6F2E0895E32DF42D31963E2E3C
:1002C8004F2E3197E5E0E0938100ECEEE093850056
:1002D800EDEEE09384000895E5E0F0E0E315F40521
:1002E8000895E1E0F0E03E0E4F1EB09AE5E0E0939D
:1002F80081000895E0E0E0938100DD24EE24089574
:10030800B09AE5E0E0938100E9EDE0938500E093A1
:1003180084000895E1E0F0E07E2E8F2E0895E1E05C
:10032800F0E09E2EAF2E0895E1E0F0E0E715F80525
:100338000895E1E0F0E0E915FA050895E1E0F0E05C
:10034800BE2ECF2E0895E1E0F0E0DE0EEF1E0895F8
:10035800E0E0E0938100332444240895109639F0B6
:10036800A89580ED97E00197F1F71197C9F70895DF
:00000001FF
