:060000000C943E000C947C
:1000060000000C9400000C9400000C9400000C946A
:1000160000000C9400000C9400000C9400000C945A
:1000260000000C9400000C9400000C9400000C944A
:1000360000000C9400000C9400000C9400000C943A
:1000460000000C9400000C9400000C9400000C942A
:1000560000000C9400000C9400000C9400000C941A
:1000660000000000000000000000000000000C007E
:10007600030068000000F894EE27EFBBF1E0F5BF3F
:10008600E5BF8DE0A2E0BB27ED938A95E9F780E016
:1000960098E0A0E0B1E0ED930197E9F7E4E7F0E03E
:1000A60085919591009761F0A591B5910590159070
:1000B600BF01F00105900D920197E1F7FB01F0CF2A
:1000C600E0E0EEBBEFEFEDBFE8E0EEBFC0E0D3E06F
:1000D6000C946D00E0E0EAB9E4EFEBB9E0E2E7B9D1
:1000E600ECE1E8B95CD14C99ABC0329B08C04E99A3
:1000F60002C05CD104C0339902C058D1FCCF4D9BDD
:1001060002C04C9B01C07DC0329B08C04E9902C004
:100116004DD104C0339902C049D1FCCF4F994AC092
:100126004A994AD14A9902C04CD109F042C04ED1EF
:10013600E5E0E0938100B09914C04FD191F0329B75
:1001460002C0339B01C002C04DD10BC04A9934D1C5
:100156004A9902C036D109F003C038D1B09A1FD1EE
:10016600EACF45D1B314C40418F547D1B0991BC0E2
:10017600329B06C0349904C000240514060409F015
:1001860004C0349902C012D1FCCF339B2BD1349BCF
:100196003ED142D121F445D111F4329B01C002C0B7
:1001A60045D101C0E3CF092C0A2811F048D1DACF96
:1001B6004BD126C04A9900D14A9902C002D109F012
:1001C6001FC048D1B0991BC0329B06C0349904C0E9
:1001D60000240514060409F004C0349902C0E6D0D0
:1001E600FCCF339BFFD0349B12D116D121F419D109
:1001F60011F4329B01C002C019D101C0E3CF24D152
:100206007ECF4A991CC0329B08C0349906C0002490
:100216000514060411F44E9B01C004C0349902C0B3
:10022600C5D0FCCF339BDED0349BF1D0F5D021F482
:10023600F8D011F4329B01C001C013D1E2CF53CFE5
:100246004C9BABC0329B08C04E9902C0AFD004C0D5
:10025600349902C0ABD0FCCF4D9B02C04C9901C073
:100266007DC0329B08C04E9902C0A0D004C034990C
:1002760002C09CD0FCCF4F994AC04A999DD04A995A
:1002860002C09FD009F042C0A1D0E5E0E093810012
:10029600B09914C04A9990D0A0D081F0329B02C088
:1002A600349B01C002C09ED009C04A9902C089D0C1
:1002B60009F003C08BD0B09A72D0EACF98D0B314AD
:1002C600C40418F59AD0B0991BC0329B06C0339966
:1002D60004C000240514060409F004C0339902C0C2
:1002E60065D0FCCF349B7ED0339B91D095D021F442
:1002F60098D011F4329B01C002C098D001C0E3CF60
:10030600092C0A2811F09BD0DACF9ED026C04A9934
:1003160053D04A9902C055D009F01FC09BD0B0995E
:100326001BC0329B06C0339904C000240514060482
:1003360009F004C0339902C039D0FCCF349B52D0A7
:10034600339B65D069D021F46CD011F4329B01C087
:1003560002C06CD001C0E3CF77D07ECF4A991CC0D3
:10036600329B08C0339906C000240514060411F414
:100376004E9B01C004C0339902C018D0FCCF349BF9
:1003860031D0339B44D048D021F44BD011F4329B6A
:1003960001C001C066D0E2CF53CFA5CEFFCFECEEB1
:1003A600E0938500EDEEE09384000895459AA8EC6D
:1003B600B0E05CD045980895E1E0F0E0DE2EEF2E47
:1003C6000895E1E0F0E0ED15FE050895DD24EE2444
:1003D600E1E0F0E03E0E4F1E0895E5E0F0E0E315A3
:1003E600F4050895E1E0F0E05E2E6F2E0895E0E05A
:1003F600E0938100BB24CC240895B09AE5E0E09315
:100406008100E9EDE0938500E09384000895E1E042
:10041600F0E07E2E8F2E0895E1E0F0E0E515F6057A
:100426000895E1E0F0E0E715F8050895E1E0F0E071
:100436009E2EAF2E55246624772488240895E1E065
:10044600F0E0BE0ECF1E0895E0E0E0938100332475
:1004560044240895DD24EE24E1E0F0E03E2E4F2E04
:10046600CCCF55246624772488240895109639F035
:10047600A89580ED97E00197F1F71197C9F70895D0
:00000001FF
